{
  "_format": "hh-sol-artifact-1",
  "contractName": "NoogaNaega",
  "sourceName": "contracts/NoogaNaega.sol",
  "abi": [
    {
      "inputs": [
        {
          "internalType": "string",
          "name": "uri",
          "type": "string"
        },
        {
          "internalType": "address",
          "name": "_proxyRegistryAddress",
          "type": "address"
        }
      ],
      "stateMutability": "nonpayable",
      "type": "constructor"
    },
    {
      "anonymous": false,
      "inputs": [
        {
          "indexed": true,
          "internalType": "address",
          "name": "owner",
          "type": "address"
        },
        {
          "indexed": true,
          "internalType": "address",
          "name": "approved",
          "type": "address"
        },
        {
          "indexed": true,
          "internalType": "uint256",
          "name": "tokenId",
          "type": "uint256"
        }
      ],
      "name": "Approval",
      "type": "event"
    },
    {
      "anonymous": false,
      "inputs": [
        {
          "indexed": true,
          "internalType": "address",
          "name": "owner",
          "type": "address"
        },
        {
          "indexed": true,
          "internalType": "address",
          "name": "operator",
          "type": "address"
        },
        {
          "indexed": false,
          "internalType": "bool",
          "name": "approved",
          "type": "bool"
        }
      ],
      "name": "ApprovalForAll",
      "type": "event"
    },
    {
      "anonymous": false,
      "inputs": [
        {
          "indexed": true,
          "internalType": "contract IERC20",
          "name": "token",
          "type": "address"
        },
        {
          "indexed": false,
          "internalType": "address",
          "name": "to",
          "type": "address"
        },
        {
          "indexed": false,
          "internalType": "uint256",
          "name": "amount",
          "type": "uint256"
        }
      ],
      "name": "ERC20PaymentReleased",
      "type": "event"
    },
    {
      "anonymous": false,
      "inputs": [
        {
          "indexed": true,
          "internalType": "address",
          "name": "previousOwner",
          "type": "address"
        },
        {
          "indexed": true,
          "internalType": "address",
          "name": "newOwner",
          "type": "address"
        }
      ],
      "name": "OwnershipTransferred",
      "type": "event"
    },
    {
      "anonymous": false,
      "inputs": [
        {
          "indexed": false,
          "internalType": "address",
          "name": "account",
          "type": "address"
        },
        {
          "indexed": false,
          "internalType": "uint256",
          "name": "shares",
          "type": "uint256"
        }
      ],
      "name": "PayeeAdded",
      "type": "event"
    },
    {
      "anonymous": false,
      "inputs": [
        {
          "indexed": false,
          "internalType": "address",
          "name": "from",
          "type": "address"
        },
        {
          "indexed": false,
          "internalType": "uint256",
          "name": "amount",
          "type": "uint256"
        }
      ],
      "name": "PaymentReceived",
      "type": "event"
    },
    {
      "anonymous": false,
      "inputs": [
        {
          "indexed": false,
          "internalType": "address",
          "name": "to",
          "type": "address"
        },
        {
          "indexed": false,
          "internalType": "uint256",
          "name": "amount",
          "type": "uint256"
        }
      ],
      "name": "PaymentReleased",
      "type": "event"
    },
    {
      "anonymous": false,
      "inputs": [
        {
          "indexed": true,
          "internalType": "address",
          "name": "from",
          "type": "address"
        },
        {
          "indexed": true,
          "internalType": "address",
          "name": "to",
          "type": "address"
        },
        {
          "indexed": true,
          "internalType": "uint256",
          "name": "tokenId",
          "type": "uint256"
        }
      ],
      "name": "Transfer",
      "type": "event"
    },
    {
      "inputs": [
        {
          "internalType": "address",
          "name": "to",
          "type": "address"
        },
        {
          "internalType": "uint256",
          "name": "tokenId",
          "type": "uint256"
        }
      ],
      "name": "approve",
      "outputs": [],
      "stateMutability": "nonpayable",
      "type": "function"
    },
    {
      "inputs": [
        {
          "internalType": "address",
          "name": "owner",
          "type": "address"
        }
      ],
      "name": "balanceOf",
      "outputs": [
        {
          "internalType": "uint256",
          "name": "",
          "type": "uint256"
        }
      ],
      "stateMutability": "view",
      "type": "function"
    },
    {
      "inputs": [],
      "name": "baseExtension",
      "outputs": [
        {
          "internalType": "string",
          "name": "",
          "type": "string"
        }
      ],
      "stateMutability": "view",
      "type": "function"
    },
    {
      "inputs": [],
      "name": "baseURI",
      "outputs": [
        {
          "internalType": "string",
          "name": "",
          "type": "string"
        }
      ],
      "stateMutability": "view",
      "type": "function"
    },
    {
      "inputs": [
        {
          "internalType": "uint256",
          "name": "tokenId",
          "type": "uint256"
        }
      ],
      "name": "getApproved",
      "outputs": [
        {
          "internalType": "address",
          "name": "",
          "type": "address"
        }
      ],
      "stateMutability": "view",
      "type": "function"
    },
    {
      "inputs": [
        {
          "internalType": "address",
          "name": "owner",
          "type": "address"
        },
        {
          "internalType": "address",
          "name": "operator",
          "type": "address"
        }
      ],
      "name": "isApprovedForAll",
      "outputs": [
        {
          "internalType": "bool",
          "name": "",
          "type": "bool"
        }
      ],
      "stateMutability": "view",
      "type": "function"
    },
    {
      "inputs": [],
      "name": "maxSupply",
      "outputs": [
        {
          "internalType": "uint256",
          "name": "",
          "type": "uint256"
        }
      ],
      "stateMutability": "view",
      "type": "function"
    },
    {
      "inputs": [],
      "name": "name",
      "outputs": [
        {
          "internalType": "string",
          "name": "",
          "type": "string"
        }
      ],
      "stateMutability": "view",
      "type": "function"
    },
    {
      "inputs": [],
      "name": "owner",
      "outputs": [
        {
          "internalType": "address",
          "name": "",
          "type": "address"
        }
      ],
      "stateMutability": "view",
      "type": "function"
    },
    {
      "inputs": [
        {
          "internalType": "uint256",
          "name": "tokenId",
          "type": "uint256"
        }
      ],
      "name": "ownerOf",
      "outputs": [
        {
          "internalType": "address",
          "name": "",
          "type": "address"
        }
      ],
      "stateMutability": "view",
      "type": "function"
    },
    {
      "inputs": [],
      "name": "paused",
      "outputs": [
        {
          "internalType": "bool",
          "name": "",
          "type": "bool"
        }
      ],
      "stateMutability": "view",
      "type": "function"
    },
    {
      "inputs": [
        {
          "internalType": "uint256",
          "name": "index",
          "type": "uint256"
        }
      ],
      "name": "payee",
      "outputs": [
        {
          "internalType": "address",
          "name": "",
          "type": "address"
        }
      ],
      "stateMutability": "view",
      "type": "function"
    },
    {
      "inputs": [
        {
          "internalType": "uint256",
          "name": "amount",
          "type": "uint256"
        }
      ],
      "name": "publicMint",
      "outputs": [],
      "stateMutability": "payable",
      "type": "function"
    },
    {
      "inputs": [
        {
          "internalType": "address",
          "name": "account",
          "type": "address"
        }
      ],
      "name": "releasable",
      "outputs": [
        {
          "internalType": "uint256",
          "name": "",
          "type": "uint256"
        }
      ],
      "stateMutability": "view",
      "type": "function"
    },
    {
      "inputs": [
        {
          "internalType": "contract IERC20",
          "name": "token",
          "type": "address"
        },
        {
          "internalType": "address",
          "name": "account",
          "type": "address"
        }
      ],
      "name": "releasable",
      "outputs": [
        {
          "internalType": "uint256",
          "name": "",
          "type": "uint256"
        }
      ],
      "stateMutability": "view",
      "type": "function"
    },
    {
      "inputs": [
        {
          "internalType": "address payable",
          "name": "account",
          "type": "address"
        }
      ],
      "name": "release",
      "outputs": [],
      "stateMutability": "nonpayable",
      "type": "function"
    },
    {
      "inputs": [
        {
          "internalType": "contract IERC20",
          "name": "token",
          "type": "address"
        },
        {
          "internalType": "address",
          "name": "account",
          "type": "address"
        }
      ],
      "name": "release",
      "outputs": [],
      "stateMutability": "nonpayable",
      "type": "function"
    },
    {
      "inputs": [
        {
          "internalType": "contract IERC20",
          "name": "token",
          "type": "address"
        },
        {
          "internalType": "address",
          "name": "account",
          "type": "address"
        }
      ],
      "name": "released",
      "outputs": [
        {
          "internalType": "uint256",
          "name": "",
          "type": "uint256"
        }
      ],
      "stateMutability": "view",
      "type": "function"
    },
    {
      "inputs": [
        {
          "internalType": "address",
          "name": "account",
          "type": "address"
        }
      ],
      "name": "released",
      "outputs": [
        {
          "internalType": "uint256",
          "name": "",
          "type": "uint256"
        }
      ],
      "stateMutability": "view",
      "type": "function"
    },
    {
      "inputs": [],
      "name": "renounceOwnership",
      "outputs": [],
      "stateMutability": "nonpayable",
      "type": "function"
    },
    {
      "inputs": [
        {
          "internalType": "address",
          "name": "from",
          "type": "address"
        },
        {
          "internalType": "address",
          "name": "to",
          "type": "address"
        },
        {
          "internalType": "uint256",
          "name": "tokenId",
          "type": "uint256"
        }
      ],
      "name": "safeTransferFrom",
      "outputs": [],
      "stateMutability": "nonpayable",
      "type": "function"
    },
    {
      "inputs": [
        {
          "internalType": "address",
          "name": "from",
          "type": "address"
        },
        {
          "internalType": "address",
          "name": "to",
          "type": "address"
        },
        {
          "internalType": "uint256",
          "name": "tokenId",
          "type": "uint256"
        },
        {
          "internalType": "bytes",
          "name": "data",
          "type": "bytes"
        }
      ],
      "name": "safeTransferFrom",
      "outputs": [],
      "stateMutability": "nonpayable",
      "type": "function"
    },
    {
      "inputs": [
        {
          "internalType": "address",
          "name": "operator",
          "type": "address"
        },
        {
          "internalType": "bool",
          "name": "approved",
          "type": "bool"
        }
      ],
      "name": "setApprovalForAll",
      "outputs": [],
      "stateMutability": "nonpayable",
      "type": "function"
    },
    {
      "inputs": [
        {
          "internalType": "string",
          "name": "_newBaseExtension",
          "type": "string"
        }
      ],
      "name": "setBaseExtension",
      "outputs": [],
      "stateMutability": "nonpayable",
      "type": "function"
    },
    {
      "inputs": [
        {
          "internalType": "string",
          "name": "_tokenBaseURI",
          "type": "string"
        }
      ],
      "name": "setBaseURI",
      "outputs": [],
      "stateMutability": "nonpayable",
      "type": "function"
    },
    {
      "inputs": [
        {
          "internalType": "address",
          "name": "account",
          "type": "address"
        }
      ],
      "name": "shares",
      "outputs": [
        {
          "internalType": "uint256",
          "name": "",
          "type": "uint256"
        }
      ],
      "stateMutability": "view",
      "type": "function"
    },
    {
      "inputs": [
        {
          "internalType": "bytes4",
          "name": "interfaceId",
          "type": "bytes4"
        }
      ],
      "name": "supportsInterface",
      "outputs": [
        {
          "internalType": "bool",
          "name": "",
          "type": "bool"
        }
      ],
      "stateMutability": "view",
      "type": "function"
    },
    {
      "inputs": [],
      "name": "symbol",
      "outputs": [
        {
          "internalType": "string",
          "name": "",
          "type": "string"
        }
      ],
      "stateMutability": "view",
      "type": "function"
    },
    {
      "inputs": [],
      "name": "togglePause",
      "outputs": [],
      "stateMutability": "nonpayable",
      "type": "function"
    },
    {
      "inputs": [
        {
          "internalType": "uint256",
          "name": "tokenId",
          "type": "uint256"
        }
      ],
      "name": "tokenURI",
      "outputs": [
        {
          "internalType": "string",
          "name": "",
          "type": "string"
        }
      ],
      "stateMutability": "view",
      "type": "function"
    },
    {
      "inputs": [
        {
          "internalType": "contract IERC20",
          "name": "token",
          "type": "address"
        }
      ],
      "name": "totalReleased",
      "outputs": [
        {
          "internalType": "uint256",
          "name": "",
          "type": "uint256"
        }
      ],
      "stateMutability": "view",
      "type": "function"
    },
    {
      "inputs": [],
      "name": "totalReleased",
      "outputs": [
        {
          "internalType": "uint256",
          "name": "",
          "type": "uint256"
        }
      ],
      "stateMutability": "view",
      "type": "function"
    },
    {
      "inputs": [],
      "name": "totalShares",
      "outputs": [
        {
          "internalType": "uint256",
          "name": "",
          "type": "uint256"
        }
      ],
      "stateMutability": "view",
      "type": "function"
    },
    {
      "inputs": [],
      "name": "totalSupply",
      "outputs": [
        {
          "internalType": "uint256",
          "name": "",
          "type": "uint256"
        }
      ],
      "stateMutability": "view",
      "type": "function"
    },
    {
      "inputs": [
        {
          "internalType": "address",
          "name": "from",
          "type": "address"
        },
        {
          "internalType": "address",
          "name": "to",
          "type": "address"
        },
        {
          "internalType": "uint256",
          "name": "tokenId",
          "type": "uint256"
        }
      ],
      "name": "transferFrom",
      "outputs": [],
      "stateMutability": "nonpayable",
      "type": "function"
    },
    {
      "inputs": [
        {
          "internalType": "address",
          "name": "newOwner",
          "type": "address"
        }
      ],
      "name": "transferOwnership",
      "outputs": [],
      "stateMutability": "nonpayable",
      "type": "function"
    },
    {
      "stateMutability": "payable",
      "type": "receive"
    }
  ],
  "bytecode": "0x61232960105560c06040526005608090815264173539b7b760d91b60a0526012906200002c90826200079e565b506013805460ff1916905567016345785d8a000060145560408051808201909152603280825260208201526200006790601690600262000635565b506040805180820190915273753b8f059cc9e0d5588524aac078b01dc2327c68815273cf7103015f10455b9f0c85d44fed5c10b01cf4c66020820152620000b39060179060026200068a565b50348015620000c157600080fd5b506040516200334a3803806200334a833981016040819052620000e49162000887565b60178054806020026020016040519081016040528092919081815260200182805480156200013c57602002820191906000526020600020905b81546001600160a01b031681526001909101906020018083116200011d575b505050505060168054806020026020016040519081016040528092919081815260200182805480156200018f57602002820191906000526020600020905b8154815260200190600101908083116200017a575b50505050506040518060400160405280600a8152602001694e6f6f67614e6165676160b01b81525060405180604001604052806003815260200162272fa760e91b8152508160009081620001e491906200079e565b506001620001f382826200079e565b505050620002106200020a6200037760201b60201c565b6200037b565b60016007558051825114620002875760405162461bcd60e51b815260206004820152603260248201527f5061796d656e7453706c69747465723a2070617965657320616e6420736861726044820152710cae640d8cadccee8d040dad2e6dac2e8c6d60731b60648201526084015b60405180910390fd5b6000825111620002da5760405162461bcd60e51b815260206004820152601a60248201527f5061796d656e7453706c69747465723a206e6f2070617965657300000000000060448201526064016200027e565b60005b82518110156200034657620003318382815181106200030057620003006200096f565b60200260200101518383815181106200031d576200031d6200096f565b6020026020010151620003cd60201b60201c565b806200033d816200099b565b915050620002dd565b5050600f80546001600160a01b0319166001600160a01b038416179055506200036f82620005bb565b5050620009d3565b3390565b600680546001600160a01b038381166001600160a01b0319831681179093556040519116919082907f8be0079c531659141344cd1fd0a4f28419497f9722a3daafe3b4186f6b6457e090600090a35050565b6001600160a01b0382166200043a5760405162461bcd60e51b815260206004820152602c60248201527f5061796d656e7453706c69747465723a206163636f756e74206973207468652060448201526b7a65726f206164647265737360a01b60648201526084016200027e565b600081116200048c5760405162461bcd60e51b815260206004820152601d60248201527f5061796d656e7453706c69747465723a2073686172657320617265203000000060448201526064016200027e565b6001600160a01b0382166000908152600a602052604090205415620005085760405162461bcd60e51b815260206004820152602b60248201527f5061796d656e7453706c69747465723a206163636f756e7420616c726561647960448201526a206861732073686172657360a81b60648201526084016200027e565b600c8054600181019091557fdf6966c971051c3d54ec59162606531493a51404a002842f56009d7e5cf4a8c70180546001600160a01b0319166001600160a01b0384169081179091556000908152600a6020526040902081905560085462000572908290620009b7565b600855604080516001600160a01b0384168152602081018390527f40c340f65e17194d14ddddb073d3c9f888e3cb52b5aae0c6c7706b4fbc905fac910160405180910390a15050565b620005c5620005d7565b6011620005d382826200079e565b5050565b6006546001600160a01b03163314620006335760405162461bcd60e51b815260206004820181905260248201527f4f776e61626c653a2063616c6c6572206973206e6f7420746865206f776e657260448201526064016200027e565b565b82805482825590600052602060002090810192821562000678579160200282015b8281111562000678578251829060ff1690559160200191906001019062000656565b5062000686929150620006e2565b5090565b82805482825590600052602060002090810192821562000678579160200282015b828111156200067857825182546001600160a01b0319166001600160a01b03909116178255602090920191600190910190620006ab565b5b80821115620006865760008155600101620006e3565b634e487b7160e01b600052604160045260246000fd5b600181811c908216806200072457607f821691505b6020821081036200074557634e487b7160e01b600052602260045260246000fd5b50919050565b601f8211156200079957600081815260208120601f850160051c81016020861015620007745750805b601f850160051c820191505b81811015620007955782815560010162000780565b5050505b505050565b81516001600160401b03811115620007ba57620007ba620006f9565b620007d281620007cb84546200070f565b846200074b565b602080601f8311600181146200080a5760008415620007f15750858301515b600019600386901b1c1916600185901b17855562000795565b600085815260208120601f198616915b828110156200083b578886015182559484019460019091019084016200081a565b50858210156200085a5787850151600019600388901b60f8161c191681555b5050505050600190811b01905550565b80516001600160a01b03811681146200088257600080fd5b919050565b600080604083850312156200089b57600080fd5b82516001600160401b0380821115620008b357600080fd5b818501915085601f830112620008c857600080fd5b815181811115620008dd57620008dd620006f9565b604051601f8201601f19908116603f01168101908382118183101715620009085762000908620006f9565b816040528281526020935088848487010111156200092557600080fd5b600091505b828210156200094957848201840151818301850152908301906200092a565b6000848483010152809650505050620009648186016200086a565b925050509250929050565b634e487b7160e01b600052603260045260246000fd5b634e487b7160e01b600052601160045260246000fd5b600060018201620009b057620009b062000985565b5060010190565b80820180821115620009cd57620009cd62000985565b92915050565b61296780620009e36000396000f3fe6080604052600436106102135760003560e01c80638b83209b11610118578063c6682862116100a0578063d79779b21161006f578063d79779b214610666578063da3ef23f1461069c578063e33b7de3146106bc578063e985e9c5146106d1578063f2fde38b146106f157600080fd5b8063c6682862146105e5578063c87b56dd146105fa578063ce7c2ac21461061a578063d5abeb011461065057600080fd5b8063a22cb465116100e7578063a22cb46514610550578063a3f8eace14610570578063b88d4fde14610590578063c45ac050146105b0578063c4ae3168146105d057600080fd5b80638b83209b146104c75780638da5cb5b146104e757806395d89b41146105055780639852595c1461051a57600080fd5b8063406072a91161019b5780635c975abb1161016a5780635c975abb146104435780636352211e1461045d5780636c0360eb1461047d57806370a0823114610492578063715018a6146104b257600080fd5b8063406072a91461039d57806342842e0e146103e357806348b750441461040357806355f804b31461042357600080fd5b806318160ddd116101e257806318160ddd14610312578063191655871461033557806323b872dd146103555780632db11544146103755780633a98ef391461038857600080fd5b806301ffc9a71461026157806306fdde0314610296578063081812fc146102b8578063095ea7b3146102f057600080fd5b3661025c577f6ef95f06320e7a25a04a175ca677b7052bdd97131872c2192525a629f51be77033604080516001600160a01b0390921682523460208301520160405180910390a1005b600080fd5b34801561026d57600080fd5b5061028161027c366004612165565b610711565b60405190151581526020015b60405180910390f35b3480156102a257600080fd5b506102ab610763565b60405161028d91906121d2565b3480156102c457600080fd5b506102d86102d33660046121e5565b6107f5565b6040516001600160a01b03909116815260200161028d565b3480156102fc57600080fd5b5061031061030b366004612213565b61081c565b005b34801561031e57600080fd5b50610327610936565b60405190815260200161028d565b34801561034157600080fd5b5061031061035036600461223f565b610946565b34801561036157600080fd5b5061031061037036600461225c565b610a2d565b6103106103833660046121e5565b610a5e565b34801561039457600080fd5b50600854610327565b3480156103a957600080fd5b506103276103b836600461229d565b6001600160a01b039182166000908152600e6020908152604080832093909416825291909152205490565b3480156103ef57600080fd5b506103106103fe36600461225c565b610cdc565b34801561040f57600080fd5b5061031061041e36600461229d565b610cf7565b34801561042f57600080fd5b5061031061043e366004612362565b610e08565b34801561044f57600080fd5b506013546102819060ff1681565b34801561046957600080fd5b506102d86104783660046121e5565b610e20565b34801561048957600080fd5b506102ab610e80565b34801561049e57600080fd5b506103276104ad36600461223f565b610f0e565b3480156104be57600080fd5b50610310610f94565b3480156104d357600080fd5b506102d86104e23660046121e5565b610fa8565b3480156104f357600080fd5b506006546001600160a01b03166102d8565b34801561051157600080fd5b506102ab610fd8565b34801561052657600080fd5b5061032761053536600461223f565b6001600160a01b03166000908152600b602052604090205490565b34801561055c57600080fd5b5061031061056b3660046123b9565b610fe7565b34801561057c57600080fd5b5061032761058b36600461223f565b610ff2565b34801561059c57600080fd5b506103106105ab3660046123e7565b61103a565b3480156105bc57600080fd5b506103276105cb36600461229d565b611072565b3480156105dc57600080fd5b5061031061113d565b3480156105f157600080fd5b506102ab611159565b34801561060657600080fd5b506102ab6106153660046121e5565b611166565b34801561062657600080fd5b5061032761063536600461223f565b6001600160a01b03166000908152600a602052604090205490565b34801561065c57600080fd5b5061032760105481565b34801561067257600080fd5b5061032761068136600461223f565b6001600160a01b03166000908152600d602052604090205490565b3480156106a857600080fd5b506103106106b7366004612362565b611243565b3480156106c857600080fd5b50600954610327565b3480156106dd57600080fd5b506102816106ec36600461229d565b611257565b3480156106fd57600080fd5b5061031061070c36600461223f565b611310565b60006001600160e01b031982166380ac58cd60e01b148061074257506001600160e01b03198216635b5e139f60e01b145b8061075d57506301ffc9a760e01b6001600160e01b03198316145b92915050565b60606000805461077290612467565b80601f016020809104026020016040519081016040528092919081815260200182805461079e90612467565b80156107eb5780601f106107c0576101008083540402835291602001916107eb565b820191906000526020600020905b8154815290600101906020018083116107ce57829003601f168201915b5050505050905090565b600061080082611389565b506000908152600460205260409020546001600160a01b031690565b600061082782610e20565b9050806001600160a01b0316836001600160a01b0316036108995760405162461bcd60e51b815260206004820152602160248201527f4552433732313a20617070726f76616c20746f2063757272656e74206f776e656044820152603960f91b60648201526084015b60405180910390fd5b336001600160a01b03821614806108b557506108b58133611257565b6109275760405162461bcd60e51b815260206004820152603d60248201527f4552433732313a20617070726f76652063616c6c6572206973206e6f7420746f60448201527f6b656e206f776e6572206f7220617070726f76656420666f7220616c6c0000006064820152608401610890565b61093183836113e8565b505050565b600061094160155490565b905090565b6001600160a01b0381166000908152600a602052604090205461097b5760405162461bcd60e51b8152600401610890906124a1565b600061098682610ff2565b9050806000036109a85760405162461bcd60e51b8152600401610890906124e7565b80600960008282546109ba9190612548565b90915550506001600160a01b0382166000908152600b602052604090208054820190556109e78282611456565b604080516001600160a01b0384168152602081018390527fdf20fd1e76bc69d672e4814fafb2c449bba3a5369d8359adf9e05e6fde87b056910160405180910390a15050565b610a37338261156f565b610a535760405162461bcd60e51b81526004016108909061255b565b6109318383836115cd565b333214610aa25760405162461bcd60e51b81526020600482015260126024820152712737ba1030b63637bbb2b21037b934b3b4b760711b6044820152606401610890565b60135460ff1615610b005760405162461bcd60e51b815260206004820152602260248201527f4e6f6f67614e61656761205265643a20436f6e74726163742069732070617573604482015261195960f21b6064820152608401610890565b60008111610b605760405162461bcd60e51b815260206004820152602760248201527f4e6f6f67614e61656761205265643a204d696e742063616e6e6f74206265203060448201526608185b5bdd5b9d60ca1b6064820152608401610890565b6000610b6b60155490565b9050600a821115610be45760405162461bcd60e51b815260206004820152603b60248201527f4e6f6f67614e61656761205265643a204d6178696d756d206d696e7420616d6f60448201527f756e742069732073657420746f20313020617420612074696d652e00000000006064820152608401610890565b601054610bf18383612548565b1115610c4b5760405162461bcd60e51b815260206004820152602360248201527f4e6f6f67614e61656761205265643a204d617820737570706c7920657863656560448201526219195960ea1b6064820152608401610890565b3482601454610c5a91906125a8565b1115610cb75760405162461bcd60e51b815260206004820152602660248201527f4e6f6f67614e61656761205265643a204e6f7420656e6f7567682065746865726044820152651cc81cd95b9d60d21b6064820152608401610890565b60005b8281101561093157610cca61173e565b80610cd4816125bf565b915050610cba565b6109318383836040518060200160405280600081525061103a565b6001600160a01b0381166000908152600a6020526040902054610d2c5760405162461bcd60e51b8152600401610890906124a1565b6000610d388383611072565b905080600003610d5a5760405162461bcd60e51b8152600401610890906124e7565b6001600160a01b0383166000908152600d602052604081208054839290610d82908490612548565b90915550506001600160a01b038084166000908152600e60209081526040808320938616835292905220805482019055610dbd838383611776565b604080516001600160a01b038481168252602082018490528516917f3be5b7a71e84ed12875d241991c70855ac5817d847039e17a9d895c1ceb0f18a910160405180910390a2505050565b610e106117c8565b6011610e1c8282612626565b5050565b6000818152600260205260408120546001600160a01b03168061075d5760405162461bcd60e51b8152602060048201526018602482015277115490cdcc8c4e881a5b9d985b1a59081d1bdad95b88125160421b6044820152606401610890565b60118054610e8d90612467565b80601f0160208091040260200160405190810160405280929190818152602001828054610eb990612467565b8015610f065780601f10610edb57610100808354040283529160200191610f06565b820191906000526020600020905b815481529060010190602001808311610ee957829003601f168201915b505050505081565b60006001600160a01b038216610f785760405162461bcd60e51b815260206004820152602960248201527f4552433732313a2061646472657373207a65726f206973206e6f7420612076616044820152683634b21037bbb732b960b91b6064820152608401610890565b506001600160a01b031660009081526003602052604090205490565b610f9c6117c8565b610fa66000611822565b565b6000600c8281548110610fbd57610fbd6126e6565b6000918252602090912001546001600160a01b031692915050565b60606001805461077290612467565b610e1c338383611874565b600080610ffe60095490565b6110089047612548565b9050611033838261102e866001600160a01b03166000908152600b602052604090205490565b611942565b9392505050565b611044338361156f565b6110605760405162461bcd60e51b81526004016108909061255b565b61106c84848484611980565b50505050565b6001600160a01b0382166000908152600d602052604081205481906040516370a0823160e01b81523060048201526001600160a01b038616906370a0823190602401602060405180830381865afa1580156110d1573d6000803e3d6000fd5b505050506040513d601f19601f820116820180604052508101906110f591906126fc565b6110ff9190612548565b6001600160a01b038086166000908152600e60209081526040808320938816835292905220549091506111359084908390611942565b949350505050565b6111456117c8565b6013805460ff19811660ff90911615179055565b60128054610e8d90612467565b6000818152600260205260409020546060906001600160a01b03166111e55760405162461bcd60e51b815260206004820152602f60248201527f4552433732314d657461646174613a2055524920717565727920666f72206e6f60448201526e3732bc34b9ba32b73a103a37b5b2b760891b6064820152608401610890565b60006111ef6119b3565b9050600081511161120f5760405180602001604052806000815250611033565b80611219846119c2565b601260405160200161122d93929190612715565b6040516020818303038152906040529392505050565b61124b6117c8565b6012610e1c8282612626565b600f5460405163c455279160e01b81526001600160a01b03848116600483015260009216903090829063c455279190602401602060405180830381865afa1580156112a6573d6000803e3d6000fd5b505050506040513d601f19601f820116820180604052508101906112ca91906127b5565b6001600160a01b0316036112e257600191505061075d565b6001600160a01b0380851660009081526005602090815260408083209387168352929052205460ff16611135565b6113186117c8565b6001600160a01b03811661137d5760405162461bcd60e51b815260206004820152602660248201527f4f776e61626c653a206e6577206f776e657220697320746865207a65726f206160448201526564647265737360d01b6064820152608401610890565b61138681611822565b50565b6000818152600260205260409020546001600160a01b03166113865760405162461bcd60e51b8152602060048201526018602482015277115490cdcc8c4e881a5b9d985b1a59081d1bdad95b88125160421b6044820152606401610890565b600081815260046020526040902080546001600160a01b0319166001600160a01b038416908117909155819061141d82610e20565b6001600160a01b03167f8c5be1e5ebec7d5bd14f71427d1e84f3dd0314c0f7b2291e5b200ac8c7c3b92560405160405180910390a45050565b804710156114a65760405162461bcd60e51b815260206004820152601d60248201527f416464726573733a20696e73756666696369656e742062616c616e63650000006044820152606401610890565b6000826001600160a01b03168260405160006040518083038185875af1925050503d80600081146114f3576040519150601f19603f3d011682016040523d82523d6000602084013e6114f8565b606091505b50509050806109315760405162461bcd60e51b815260206004820152603a60248201527f416464726573733a20756e61626c6520746f2073656e642076616c75652c207260448201527f6563697069656e74206d617920686176652072657665727465640000000000006064820152608401610890565b60008061157b83610e20565b9050806001600160a01b0316846001600160a01b031614806115a257506115a28185611257565b806111355750836001600160a01b03166115bb846107f5565b6001600160a01b031614949350505050565b826001600160a01b03166115e082610e20565b6001600160a01b0316146116065760405162461bcd60e51b8152600401610890906127d2565b6001600160a01b0382166116685760405162461bcd60e51b8152602060048201526024808201527f4552433732313a207472616e7366657220746f20746865207a65726f206164646044820152637265737360e01b6064820152608401610890565b6116758383836001611a55565b826001600160a01b031661168882610e20565b6001600160a01b0316146116ae5760405162461bcd60e51b8152600401610890906127d2565b600081815260046020908152604080832080546001600160a01b03199081169091556001600160a01b0387811680865260038552838620805460001901905590871680865283862080546001019055868652600290945282852080549092168417909155905184937fddf252ad1be2c89b69c2b068fc378daa952ba7f163c4a11628f55a4df523b3ef91a4505050565b611746611add565b611754601580546001019055565b600061175f60155490565b905061176b3382611b36565b50610fa66001600755565b604080516001600160a01b038416602482015260448082018490528251808303909101815260649091019091526020810180516001600160e01b031663a9059cbb60e01b179052610931908490611b50565b6006546001600160a01b03163314610fa65760405162461bcd60e51b815260206004820181905260248201527f4f776e61626c653a2063616c6c6572206973206e6f7420746865206f776e65726044820152606401610890565b600680546001600160a01b038381166001600160a01b0319831681179093556040519116919082907f8be0079c531659141344cd1fd0a4f28419497f9722a3daafe3b4186f6b6457e090600090a35050565b816001600160a01b0316836001600160a01b0316036118d55760405162461bcd60e51b815260206004820152601960248201527f4552433732313a20617070726f766520746f2063616c6c6572000000000000006044820152606401610890565b6001600160a01b03838116600081815260056020908152604080832094871680845294825291829020805460ff191686151590811790915591519182527f17307eab39ab6107e8899845ad3d59bd9653f200f220920489ca2b5937696c31910160405180910390a3505050565b6008546001600160a01b0384166000908152600a60205260408120549091839161196c90866125a8565b6119769190612817565b6111359190612839565b61198b8484846115cd565b61199784848484611c22565b61106c5760405162461bcd60e51b81526004016108909061284c565b60606011805461077290612467565b606060006119cf83611d23565b600101905060008167ffffffffffffffff8111156119ef576119ef6122d6565b6040519080825280601f01601f191660200182016040528015611a19576020820181803683370190505b5090508181016020015b600019016f181899199a1a9b1b9c1cb0b131b232b360811b600a86061a8153600a8504945084611a2357509392505050565b600181111561106c576001600160a01b03841615611a9b576001600160a01b03841660009081526003602052604081208054839290611a95908490612839565b90915550505b6001600160a01b0383161561106c576001600160a01b03831660009081526003602052604081208054839290611ad2908490612548565b909155505050505050565b600260075403611b2f5760405162461bcd60e51b815260206004820152601f60248201527f5265656e7472616e637947756172643a207265656e7472616e742063616c6c006044820152606401610890565b6002600755565b610e1c828260405180602001604052806000815250611dfb565b6000611ba5826040518060400160405280602081526020017f5361666545524332303a206c6f772d6c6576656c2063616c6c206661696c6564815250856001600160a01b0316611e2e9092919063ffffffff16565b8051909150156109315780806020019051810190611bc3919061289e565b6109315760405162461bcd60e51b815260206004820152602a60248201527f5361666545524332303a204552433230206f7065726174696f6e20646964206e6044820152691bdd081cdd58d8d9595960b21b6064820152608401610890565b60006001600160a01b0384163b15611d1857604051630a85bd0160e11b81526001600160a01b0385169063150b7a0290611c669033908990889088906004016128bb565b6020604051808303816000875af1925050508015611ca1575060408051601f3d908101601f19168201909252611c9e918101906128f8565b60015b611cfe573d808015611ccf576040519150601f19603f3d011682016040523d82523d6000602084013e611cd4565b606091505b508051600003611cf65760405162461bcd60e51b81526004016108909061284c565b805181602001fd5b6001600160e01b031916630a85bd0160e11b149050611135565b506001949350505050565b60008072184f03e93ff9f4daa797ed6e38ed64bf6a1f0160401b8310611d625772184f03e93ff9f4daa797ed6e38ed64bf6a1f0160401b830492506040015b6d04ee2d6d415b85acef81000000008310611d8e576d04ee2d6d415b85acef8100000000830492506020015b662386f26fc100008310611dac57662386f26fc10000830492506010015b6305f5e1008310611dc4576305f5e100830492506008015b6127108310611dd857612710830492506004015b60648310611dea576064830492506002015b600a831061075d5760010192915050565b611e058383611e3d565b611e126000848484611c22565b6109315760405162461bcd60e51b81526004016108909061284c565b60606111358484600085611fd6565b6001600160a01b038216611e935760405162461bcd60e51b815260206004820181905260248201527f4552433732313a206d696e7420746f20746865207a65726f20616464726573736044820152606401610890565b6000818152600260205260409020546001600160a01b031615611ef85760405162461bcd60e51b815260206004820152601c60248201527f4552433732313a20746f6b656e20616c7265616479206d696e746564000000006044820152606401610890565b611f06600083836001611a55565b6000818152600260205260409020546001600160a01b031615611f6b5760405162461bcd60e51b815260206004820152601c60248201527f4552433732313a20746f6b656e20616c7265616479206d696e746564000000006044820152606401610890565b6001600160a01b038216600081815260036020908152604080832080546001019055848352600290915280822080546001600160a01b0319168417905551839291907fddf252ad1be2c89b69c2b068fc378daa952ba7f163c4a11628f55a4df523b3ef908290a45050565b6060824710156120375760405162461bcd60e51b815260206004820152602660248201527f416464726573733a20696e73756666696369656e742062616c616e636520666f6044820152651c8818d85b1b60d21b6064820152608401610890565b600080866001600160a01b031685876040516120539190612915565b60006040518083038185875af1925050503d8060008114612090576040519150601f19603f3d011682016040523d82523d6000602084013e612095565b606091505b50915091506120a6878383876120b1565b979650505050505050565b60608315612120578251600003612119576001600160a01b0385163b6121195760405162461bcd60e51b815260206004820152601d60248201527f416464726573733a2063616c6c20746f206e6f6e2d636f6e74726163740000006044820152606401610890565b5081611135565b61113583838151156121355781518083602001fd5b8060405162461bcd60e51b815260040161089091906121d2565b6001600160e01b03198116811461138657600080fd5b60006020828403121561217757600080fd5b81356110338161214f565b60005b8381101561219d578181015183820152602001612185565b50506000910152565b600081518084526121be816020860160208601612182565b601f01601f19169290920160200192915050565b60208152600061103360208301846121a6565b6000602082840312156121f757600080fd5b5035919050565b6001600160a01b038116811461138657600080fd5b6000806040838503121561222657600080fd5b8235612231816121fe565b946020939093013593505050565b60006020828403121561225157600080fd5b8135611033816121fe565b60008060006060848603121561227157600080fd5b833561227c816121fe565b9250602084013561228c816121fe565b929592945050506040919091013590565b600080604083850312156122b057600080fd5b82356122bb816121fe565b915060208301356122cb816121fe565b809150509250929050565b634e487b7160e01b600052604160045260246000fd5b600067ffffffffffffffff80841115612307576123076122d6565b604051601f8501601f19908116603f0116810190828211818310171561232f5761232f6122d6565b8160405280935085815286868601111561234857600080fd5b858560208301376000602087830101525050509392505050565b60006020828403121561237457600080fd5b813567ffffffffffffffff81111561238b57600080fd5b8201601f8101841361239c57600080fd5b611135848235602084016122ec565b801515811461138657600080fd5b600080604083850312156123cc57600080fd5b82356123d7816121fe565b915060208301356122cb816123ab565b600080600080608085870312156123fd57600080fd5b8435612408816121fe565b93506020850135612418816121fe565b925060408501359150606085013567ffffffffffffffff81111561243b57600080fd5b8501601f8101871361244c57600080fd5b61245b878235602084016122ec565b91505092959194509250565b600181811c9082168061247b57607f821691505b60208210810361249b57634e487b7160e01b600052602260045260246000fd5b50919050565b60208082526026908201527f5061796d656e7453706c69747465723a206163636f756e7420686173206e6f2060408201526573686172657360d01b606082015260800190565b6020808252602b908201527f5061796d656e7453706c69747465723a206163636f756e74206973206e6f742060408201526a191d59481c185e5b595b9d60aa1b606082015260800190565b634e487b7160e01b600052601160045260246000fd5b8082018082111561075d5761075d612532565b6020808252602d908201527f4552433732313a2063616c6c6572206973206e6f7420746f6b656e206f776e6560408201526c1c881bdc88185c1c1c9bdd9959609a1b606082015260800190565b808202811582820484141761075d5761075d612532565b6000600182016125d1576125d1612532565b5060010190565b601f82111561093157600081815260208120601f850160051c810160208610156125ff5750805b601f850160051c820191505b8181101561261e5782815560010161260b565b505050505050565b815167ffffffffffffffff811115612640576126406122d6565b6126548161264e8454612467565b846125d8565b602080601f83116001811461268957600084156126715750858301515b600019600386901b1c1916600185901b17855561261e565b600085815260208120601f198616915b828110156126b857888601518255948401946001909101908401612699565b50858210156126d65787850151600019600388901b60f8161c191681555b5050505050600190811b01905550565b634e487b7160e01b600052603260045260246000fd5b60006020828403121561270e57600080fd5b5051919050565b6000845160206127288285838a01612182565b85519184019161273b8184848a01612182565b855492019160009061274c81612467565b600182811680156127645760018114612779576127a5565b60ff19841687528215158302870194506127a5565b896000528560002060005b8481101561279d57815489820152908301908701612784565b505082870194505b50929a9950505050505050505050565b6000602082840312156127c757600080fd5b8151611033816121fe565b60208082526025908201527f4552433732313a207472616e736665722066726f6d20696e636f72726563742060408201526437bbb732b960d91b606082015260800190565b60008261283457634e487b7160e01b600052601260045260246000fd5b500490565b8181038181111561075d5761075d612532565b60208082526032908201527f4552433732313a207472616e7366657220746f206e6f6e20455243373231526560408201527131b2b4bb32b91034b6b83632b6b2b73a32b960711b606082015260800190565b6000602082840312156128b057600080fd5b8151611033816123ab565b6001600160a01b03858116825284166020820152604081018390526080606082018190526000906128ee908301846121a6565b9695505050505050565b60006020828403121561290a57600080fd5b81516110338161214f565b60008251612927818460208701612182565b919091019291505056fea264697066735822122040ec6042b9a757468a396b179281a0437e494fbb6ba3897aa56cc555a22b04ae64736f6c63430008110033",
  "linkReferences": {},
  "deployedLinkReferences": {}
}